S011000044535F746F5F4932432E737265631D
S11300000C9434000C9451000C9451000C94510045
S11300100C9451000C9451000C9451000C94510018
S11300200C9451000C9451000C9451000C94510008
S11300300C9451000C9451000C9451000C945100F8
S11300400C9451000C9451000C9451000C945100E8
S11300500C9451000C9451000C9451000C945100D8
S11300600C944D050C94510011241FBECFEFD4E025
S1130070DEBFCDBF11E0A0E0B1E0E0EFFBE002C0E5
S113008005900D92AC31B107D9F723E0ACE1B1E0B2
S113009001C01D92AF3AB207E1F70E94A7020C9487
S11300A0F6050C94000087B1836087B988B18C7F12
S11300B088B908958091B10280FF0FC084B1816036
S11300C084B98091B20280FF04C085B1816085B992
S11300D011C085B18E7F85B90DC084B18E7F84B97E
S11300E0E0EBF2E082818E7F8283189B03C08281E1
S11300F0816082838091B10281FF0FC08AB18068E0
S11301008AB98091B20281FF04C08BB180688BB937
S113011011C08BB18F778BB90DC08AB18F778AB933
S1130120E0EBF2E082818D7F82834F9B03C082816A
S1130130826082838091B10282FF0FC08AB18064A1
S11301408AB98091B20282FF04C08BB180648BB9FA
S113015011C08BB18F7B8BB90DC08AB18F7B8AB9EB
S1130160E0EBF2E082818B7F82834E9B03C082812D
S1130170846082838091B10283FF0FC08AB1806260
S11301808AB98091B20283FF04C08BB180628BB9BB
S113019011C08BB18F7D8BB90DC08AB18F7D8AB9A7
S11301A0E0EBF2E08281877F82834D9B03C08281F2
S11301B0886082838091B10284FF0FC084B180681B
S11301C084B98091B20284FF04C085B1806885B986
S11301D011C085B18F7785B90DC084B18F7784B98B
S11301E0E0EBF2E082818F7E82831F9B03C08281D9
S11301F0806182838091B10285FF0FC084B18064E5
S113020084B98091B20285FF04C085B1806485B948
S113021011C085B18F7B85B90DC084B18F7B84B942
S1130220E0EBF2E082818F7D82831E9B03C082819A
S1130230806282838091B10286FF0FC08AB180619F
S11302408AB98091B20286FF04C08BB180618BB9F8
S113025008958BB18F7E8BB908958AB18F7E8AB948
S1130260E0EBF2E082818F7B82834C9B03C082812E
S1130270806482830895DF92EF92FF920F931F931D
S1130280CF93DF93CDB7DEB72A970FB6F894DEBFCE
S11302900FBECDBFD82E8BEFE3EBF2E0DF011D9252
S11302A08A95E9F780E0E12C0AC0E82FF0E0E45EEB
S11302B0FE4F9081990F990F990FE90E8F5F8D155D
S11302C0A0F38D2D90E08C01000F111F000F111F62
S11302D0000F111F081B190B00501F4FC8010E946B
S11302E03C048FEF89831A82FE01339688E0DF0194
S11302F01D928A95E9F7F12C1AC0CE0101960E944D
S1130300D404882399F0AF2DB0E0AA0FBB1FAA0F25
S1130310BB1FAA0FBB1FAE0DB11DA05EBE4F88E070
S1130320FE01339601900D928A95E1F7F394BE0194
S11303306F5F7F4FC8010E94B7048111DECFED2D9E
S1130340F0E0E45EFE4FF082FF0CFF0CFF0C00EBCC
S113035012E0F801F4824F2D50E06E2D70E0605EE3
S11303607E4F85EB92E00E94ED0561E06F0D84EB1A
S113037092E00E94E302D80113968C932A960FB65A
S1130380F894DEBF0FBECDBFDF91CF911F910F91C7
S1130390FF90EF90DF900895EF92FF920F931F93D9
S11303A0CF93DF93082F90E00F2EF5E0EF2EF02D82
S11303B0F12C0DC0E92FF0E0E45EFE4F8081282F80
S11303C0220F220F220FF20E880FE80E9F5F901764
S11303D088F310E025C0C12FD0E0BE01660F771F5F
S11303E0660F771F660F771F6F0D711D202F30E08A
S11303F0C901880F991F880F991F880F991F821BA5
S1130400930B605E7E4F80509F4F0E943903CC0F48
S1130410DD1FCE0DD11DC055DD4F998388831F5F2D
S1130420E02FF0E0E45EFE4F80811817A0F2DF9128
S1130430CF911F910F91FF90EF900895CF93DF9389
S11304408091B0028F7109F47FC088B1826088B94D
S11304508091B002843021F128F4813041F082305F
S1130460D9F06AC0883001F1803111F165C080E9AA
S113047091E0E0E2F1E0DF019C011D922150304067
S1130480E1F784E0ECE1F1E0DF011D928A95E9F700
S113049080E00E943B0150C081E00E943B014CC0BF
S11304A082E00E943B0148C083E00E943B0144C0BB
S11304B080E091E00E94560387E091E00E94560399
S11304C08EE091E00E94560385E191E00E9456037C
S11304D0BFE72FE432E1B15020403040E1F700C0E3
S11304E000008BEFE3EBF2E0DF011D928A95E9F760
S11304F080E00E94CC0181E00E94CC0182E00E9455
S1130500CC0183E00E94CC01ECE1F1E02081818107
S113051090E0820F911D2281820F911D2381820F11
S1130520911D880FC0EBD2E08C836C816F5F84EBEC
S113053092E00E94E3028B83E0EBF2E08081807E14
S1130540808388B18D7F88B9DF91CF9108958EEF34
S1130550E0EBF2E0DF011D928A95E9F780E991E092
S1130560E0E2F1E0DF019C011D9221503040E1F70F
S113057084E0ECE1F1E0DF011D928A95E9F70E9445
S113058053008FE30E943E059FE088E10FB6F89484
S1130590A895809360000FBE90936000F8940E9429
S11305A05A000E941E027894BFEF24E33CE0B1504D
S11305B020403040E1F700C0000098B181E0892775
S11305C088B9A895EBCFAC0120E080E00DC0FA011A
S11305D0E20FF11D9081892798E03CE8869508F4A4
S11305E083279A95D9F72F5F261788F30895CF921A
S11305F0DF92EF92FF921F93CF93DF93CDB7DEB7D5
S113060029970FB6F894DEBF0FBECDBF6C0110E082
S11306100FC0E12E012E000CFF08C6010E947F04CA
S1130620E1E0F0E0EC0FFD1FEE0DFF1D80831F5F86
S113063019307CF368E0CE0101960E94E3029985AB
S1130640891307C08A8190E0982F88272981822BFB
S113065002C080E090E529960FB6F894DEBF0FBE85
S1130660CDBFDF91CF911F91FF90EF90DF90CF909E
S113067008950F931F93CF93DF93EC018B010E9496
S11306803C04882361F0B801CE010E9497046EEB0C
S1130690CE010E946404CE010E94F70202C080E0F1
S11306A098EADF91CF911F910F910895CF93DF9333
S11306B0EC010E943C04CE010E94B30464E4CE0128
S11306C00E946404DF91CF910895CF93DF93EC01EE
S11306D0662371F00E9406058DE08A95F1F700000B
S11306E0CE010E94F40482E98A95F1F700C00DC09E
S11306F00E94060582E98A95F1F700C0CE010E94A6
S1130700F4048DE08A95F1F70000DF91CF9108950C
S1130710CF93DF93EC010E940605CE010E94E10411
S113072082E08A95F1F700C0CE010E941A058AE1A1
S11307308A95F1F700C0CE010E942F0591E0811146
S113074001C090E085E88A95F1F70000892FDF91D8
S1130750CF910895BF92CF92DF92EF92FF920F93C1
S11307601F93CF93DF938C017B01D0E0BB24BA9419
S11307706AC08D2FDD2314F487E08D0FC82EC59435
S1130780C594C5948D2F87781CF48150886F8F5F32
S1130790D82EC8010E941A05C8010E948803C82FD8
S11307A0C8010E94880390E0880F991F8C2B41F0A8
S11307B00CF457C083300CF054C0C82FC1701AC059
S11307C0F7018081D81781F0D81784F4EC0DF11D5E
S11307D0C28121E030E0C9010D2C02C0880F991FAD
S11307E00A94E2F7C82303C0C1E001C0C0E0C1110C
S11307F001C0BD2EC1110FC081E090E002C0880F7E
S1130800991FDA94E2F7F701EC0DF11D80959281BE
S1130810892382830DC08C2F90E002C0880F991F1A
S1130820DA94E2F7F701EC0DF11D9281892B8283B2
S1130830C8010E94F404C8010E94E1046C2FC8019D
S11308400E946503DF5FD0340CF493CFFFEFBF1237
S113085004C081E0F701818305C0F701B08281E023
S113086001C080E0DF91CF911F910F91FF90EF9035
S1130870DF90CF90BF900895CF93DF93EC010E9457
S1130880F404CE010E94E104CE010E9406058FEB20
S113089093E00197F1F700C00000CE010E941A0511
S11308A09AEB9A95F1F700C0CE010E942F05982F7C
S11308B0E7E9F3E03197F1F700C0000081E091111E
S11308C080E0DF91CF9108950F931F93CF93DF932F
S11308D08C01D62F0E94F404C8010E94E104C8E0F0
S11308E007C06D2F6170C8010E946503D695C15081
S11308F0C111F7CFDF91CF911F910F9108950F93FD
S11309001F93CF93DF938C010E941A05C1E0D0E0BE
S113091006C0C8010E9488038111DC2BCC0FC111D1
S1130920F8CF8D2FDF91CF911F910F910895EF9202
S1130930FF920F931F93CF938C017B0165E50E9477
S11309406404C0E008C0F701EC0FF11D6081C80128
S11309500E946404CF5FC830B0F3CF911F910F9110
S1130960FF90EF9008956CEC0E94640408950F9337
S11309701F93CF93DF93FB01218121110FC0EB0162
S11309808C010E943C04882351F060EFC8010E944E
S11309906404BE01C8010E94AA0301C080E0DF9183
S11309A0CF911F910F910895CF93FC01C18567E00A
S11309B002960E94E30291E0C81390E0892FCF9140
S11309C00895DC011496ED91FC911597408121E086
S11309D030E0C90116960C9002C0880F991F0A9442
S11309E0E2F7842B80830895DC01ED91FC9111974B
S11309F0408121E030E0C90116960C9002C0880FB6
S1130A00991F0A94E2F7842B80830895DC01ED9109
S1130A10FC911197408121E030E0B90116960C90C9
S1130A2002C0660F771F0A94E2F7CB0180958423F6
S1130A3080830895DC011496ED91FC911597408113
S1130A4021E030E016960C9002C0220F331F0A9466
S1130A50E2F72095242320830E9406050895FC01D3
S1130A60A281B3814C9121E030E0C901068002C02B
S1130A70880F991F0A94E2F784230895880F8093BE
S1130A80BA00ECEBF0E080818F7C80838081856408
S1130A9080838FEF8093AE0308951F920F920FB659
S1130AA00F9211248F939F93EF93FF938091B9003A
S1130AB0887F803A09F481C028F4803651F0803868
S1130AC079F07FC0883A09F459C0883B09F456C0CC
S1130AD078C085EC8093BC008FEF8093AE0374C024
S1130AE08091BB009091AE039F3F41F48E3F10F480
S1130AF08093AE0385EC8093BC0066C09091AE03F6
S1130B0091111AC09FEF980F923030F0843021F089
S1130B10883011F0803181F4E091AE03F0E0E055CB
S1130B20FD4F9081907E9083E091AE03F0E0E0551C
S1130B30FD4F9081982B90839091AE03913021F0DA
S1130B409091AE03923089F4E091AE03F0E0E05569
S1130B50FD4F908190789083E091AE03F0E0E055F2
S1130B60FD4F90818F77892B80838091AE038F5FB7
S1130B708093AE0385EC8093BC0026C08091AE03C5
S1130B808F3F11F41092AE038091AE038F3F71F04A
S1130B90E091AE03F0E0E055FD4F80818093BB000F
S1130BA08091AE038F5F8093AE0303C08EEF80937A
S1130BB0BB0085EC8093BC0007C085EC8093BC002F
S1130BC003C085ED8093BC00FF91EF919F918F91BD
S1130BD00F900FBE0F901F901895FB01DC0102C00F
S1130BE001900D9241505040D8F70895F894FFCFEA
S1130BF02B0029002A00002B0029002A00012B00C9
S10F0C0029002A00022B0029002A00030E
S9030000FC
